:100000000C945E000C9486000C9486000C94860080
:100010000C9486000C9486000C9486000C94860048
:100020000C9486000C9486000C9486000C94860038
:100030000C9486000C9486000C9486000C94860028
:100040000C942B020C9486000C9486000C94860071
:100050000C9486000C9486000C9486000C94860008
:100060000C9486000C9486000000000024002700F9
:100070002A0000000000250028002B0004040404CE
:100080000404040402020202020203030303030342
:10009000010204081020408001020408102001021F
:1000A00004081020000000080002010000030407FB
:1000B00000000000000000006303BF0311241FBE06
:1000C000CFEFD8E0DEBFCDBF11E0A0E0B1E0E8EDBA
:1000D000FAE002C005900D92A830B107D9F721E0EF
:1000E000A8E0B1E001C01D92AC32B207E1F710E028
:1000F000CDE5D0E004C02197FE010E943804CC3544
:10010000D107C9F70E9475020C945F050C9400009A
:1001100090E0FC01EC55FF4F2491FC01E057FF4FAC
:100120003491FC01E458FF4FE491EE23B9F122230E
:1001300039F1233091F038F42130A9F0223001F563
:1001400084B58F7D12C0273091F02830A1F0243083
:10015000B9F4809180008F7D03C0809180008F77FB
:10016000809380000DC084B58F7784BD09C08091D5
:10017000B0008F7703C08091B0008F7D8093B00076
:10018000F0E0EE0FFF1FEE58FF4FA591B4919FB71F
:10019000F8948C91309538233C939FBF089520911B
:1001A00015013091160182179307D0F520911A019D
:1001B000222341F0629FB0011124672F249FA001E8
:1001C0001124452F5091200170911D0120911B0198
:1001D00030911C01571308C0FC01EE0FFF1F8E0F5A
:1001E0009F1F820F931F0AC0880F991F880F991FA6
:1001F000820F931FFC01E50FF11D108220911D015C
:10020000FC01E20FF11D608320911E01FC01E20F51
:10021000F11D108220911F01FC01E20FF11D4083AE
:100220000895CF93DF9390E0FC01E057FF4F2491B6
:10023000FC01E458FF4F8491882361F190E0880F1E
:10024000991FFC01E859FF4FC591D491FC01EE586C
:10025000FF4FA591B491611109C09FB7F8948881AF
:10026000209582238883EC912E230BC0623061F4A9
:100270009FB7F8948881322F309583238883EC913F
:100280002E2B2C939FBF06C08FB7F894E8812E2B9E
:1002900028838FBFDF91CF9108953FB7F894809165
:1002A0000F0190911001A0911101B091120126B59A
:1002B000A89B05C02F3F19F00196A11DB11D3FBF9E
:1002C000BA2FA92F982F8827820F911DA11DB11D2C
:1002D000BC01CD0142E0660F771F881F991F4A9528
:1002E000D1F708950F931F93CF93DF93CDB7DEB768
:1002F00029970FB6F894DEBF0FBECDBF0E944D0107
:1003000000912101109122012091230130912401BB
:10031000DC01CB01801B910BA20BB30B8C32914003
:10032000A105B10558F3F894809117019091180137
:100330009A838983E0911B01F0911C01DF011196E2
:100340008081898790911301E0912501F091260128
:1003500080912701992309F42EC09081982B9887CA
:100360009081809589238F838F818C8388E08B8314
:1003700058856F8149853B812C8189819A81508381
:1003800047FD252F3A952083262F39F0441F00C0C2
:1003900000006083000000C0F2CF38E04D91608320
:1003A0000000019761F7F0932601E093250149874A
:1003B0003B832C8338C09081982B988790818095BF
:1003C00089238F838F818E8388E08D8358856F8109
:1003D00049853D812E8189819A81508347FD252F52
:1003E00000C000C0208300C000C000C000C000C02A
:1003F00060830000262F3A9541F0441F000000C0A2
:1004000000C000C000C000C0E8CF38E04D9100C07F
:10041000608300C0019709F7F0932601E09325015E
:1004200049873D832E839A83898378940E944D0166
:100430006093210170932201809323019093240102
:1004400029960FB6F894DEBF0FBECDBFDF91CF91D6
:100450001F910F9108951F920F920FB60F921124C2
:100460002F933F938F939F93AF93BF9380910B01F3
:1004700090910C01A0910D01B0910E0130910A01F3
:1004800023E0230F2D3720F40196A11DB11D05C0D7
:1004900026E8230F0296A11DB11D20930A01809327
:1004A0000B0190930C01A0930D01B0930E0180916C
:1004B0000F0190911001A0911101B09112010196CC
:1004C000A11DB11D80930F0190931001A093110104
:1004D000B0931201BF91AF919F918F913F912F9156
:1004E0000F900FBE0F901F901895789484B582607E
:1004F00084BD84B5816084BD85B5826085BD85B5C8
:10050000816085BD80916E00816080936E00109245
:1005100081008091810082608093810080918100C0
:100520008160809381008091800081608093800051
:100530008091B10084608093B1008091B0008160AF
:100540008093B00080917A00846080937A008091DB
:100550007A00826080937A0080917A008160809333
:100560007A0080917A00806880937A001092C100AE
:100570008091190187FD07C061E00E9411018091FF
:1005800019010E94880081E08093140180911B0171
:1005900090911C01892B11F00E94720138E7832E83
:1005A000912C47E7442E512C612C712C50E0A52E44
:1005B00050E0B52E2FB7F89480910B0190910C016B
:1005C000A0910D01B0910E012FBF883522E0920756
:1005D0000CF072C0B4010E9410046C010091000183
:1005E00010910101092E000CAA0BBB0BBC01CD011F
:1005F00023E0660F771F881F991F2A95D1F7A30163
:1006000092010E94CF03029FE001039FD00D129F31
:10061000D00D1124D0930901C09308017E01E01A86
:10062000F10A40E060E0C7010E94CF0040E060E0D6
:10063000C70108960E94CF0040E060E0C7014096E5
:100640000E94CF0040E060E0C70148960E94CF00C2
:1006500040E060E0C70180960E94CF004AE06AE077
:10066000CE010E94CF004AE06AE0CE0108960E94C7
:10067000CF004AE06AE0CE0140960E94CF004AE0F7
:100680006AE0CE0148960E94CF004AE06AE0CE01BF
:1006900080960E94CF0080911B0190911C01892BB4
:1006A00011F00E947201CD2839F4119501951109BC
:1006B0001093010100930001A114B10409F47ACF51
:1006C0000E94000077CF1092140110921A0110922C
:1006D000210110922201109223011092240181E045
:1006E0008093200180931D0110921E0192E090934F
:1006F0001F018093130184EB90E090931801809385
:1007000017010E943E0490931C0180931B010097E7
:1007100061F024EBFC0111922A95E9F78CE390E05B
:10072000909316018093150108C010921801109241
:100730001701109216011092150186E0809319019D
:1007400080911401882339F061E086E00E94110154
:1007500086E00E948800E2E8F0E0E491F0E0EE0F2D
:10076000FF1FEE58FF4F859194919093260180933F
:100770002501E6E9F0E0E491E093270108958091F6
:100780001B0190911C01009711F00E94D6048091EA
:10079000190187FD03C060E00C9411010895052E36
:1007A00097FB1EF400940E94E60357FD07D00E94B9
:1007B000EE0307FC03D04EF40C94E60350954095ED
:1007C000309521953F4F4F4F5F4F089590958095FD
:1007D000709561957F4F8F4F9F4F0895A1E21A2E1C
:1007E000AA1BBB1BFD010DC0AA1FBB1FEE1FFF1FD5
:1007F000A217B307E407F50720F0A21BB30BE40B25
:10080000F50B661F771F881F991F1A9469F760956B
:100810007095809590959B01AC01BD01CF01089525
:1008200097FB072E16F4009407D077FD09D00E949D
:10083000240407FC05D03EF4909581959F4F0895C0
:10084000709561957F4F0895AA1BBB1B51E107C0AE
:10085000AA1FBB1FA617B70710F0A61BB70B881F50
:10086000991F5A95A9F780959095BC01CD010895DF
:10087000EE0FFF1F0590F491E02D09940F931F9345
:10088000CF93DF938230910510F482E090E0E09105
:100890002A01F0912B0120E030E0A0E0B0E0309799
:1008A00019F1408151810281138148175907C8F01D
:1008B0008417950769F4109731F012960C931297EC
:1008C00013961C9327C000932A0110932B0122C07A
:1008D0002115310519F04217530718F49A01BD018B
:1008E000EF01DF01F801DBCF21153105F9F0281BFD
:1008F000390B2430310580F48A819B8161157105A3
:1009000021F0FB019383828304C090932B01809399
:100910002A01FE01329644C0FE01E20FF31F8193CB
:10092000919322503109398328833AC020912801BC
:1009300030912901232B41F42091040130910501CC
:100940003093290120932801209102013091030165
:100950002115310541F42DB73EB740910601509164
:100960000701241B350BE0912801F0912901E217C2
:10097000F307A0F42E1B3F0B2817390778F0AC01C2
:100980004E5F5F4F2417350748F04E0F5F1F50939F
:100990002901409328018193919302C0E0E0F0E0A7
:1009A000CF01DF91CF911F910F910895CF93DF93E6
:1009B000009709F481C0FC01329713821282A09142
:1009C0002A01B0912B01109781F420813181820F8F
:1009D000931F20912801309129012817390751F5DB
:1009E000F0932901E093280167C0ED0120E030E099
:1009F000CE17DF0740F44A815B819E014115510506
:100A0000F1F0EA01F5CFD383C28340815181840F95
:100A1000951FC817D90759F488819981840F951FAC
:100A20000296918380838A819B819383828321159F
:100A3000310529F4F0932B01E0932A013DC0E9012F
:100A4000FB83EA8349915991C40FD51FEC17FD0729
:100A500061F480819181840F951F0296E901998349
:100A60008883828193819B838A83E0E0F0E0129601
:100A70008D919C911397009719F0FD01DC01F7CF40
:100A80008D919C9111979D012E5F3F4F820F931F77
:100A900020912801309129012817390769F43097EE
:100AA00029F410922B0110922A0102C013821282A3
:100AB000B0932901A0932801DF91CF91089510E010
:100AC000CDE5D0E004C0FE010E9438042196CE3569
:080AD000D107C9F7F894FFCF2C
:080AD800010000002C01800068
:00000001FF
